{
  "address": "0xD5bb6EFFD8Fd2131498Ae62C6A65F11df8d576f2",
  "abi": [
    {
      "inputs": [
        {
          "internalType": "address",
          "name": "_creator",
          "type": "address"
        },
        {
          "internalType": "uint256",
          "name": "_startTime",
          "type": "uint256"
        },
        {
          "internalType": "uint256",
          "name": "_endTime",
          "type": "uint256"
        },
        {
          "internalType": "uint256",
          "name": "_moneyGoal",
          "type": "uint256"
        },
        {
          "internalType": "address",
          "name": "_tokenAddress",
          "type": "address"
        }
      ],
      "stateMutability": "nonpayable",
      "type": "constructor"
    },
    {
      "anonymous": false,
      "inputs": [
        {
          "indexed": false,
          "internalType": "uint256",
          "name": "amount",
          "type": "uint256"
        }
      ],
      "name": "CreatorWithdraw",
      "type": "event"
    },
    {
      "anonymous": false,
      "inputs": [
        {
          "indexed": false,
          "internalType": "address",
          "name": "donor",
          "type": "address"
        },
        {
          "indexed": false,
          "internalType": "uint256",
          "name": "amount",
          "type": "uint256"
        },
        {
          "indexed": false,
          "internalType": "uint256",
          "name": "totalDonations",
          "type": "uint256"
        }
      ],
      "name": "NewDonation",
      "type": "event"
    },
    {
      "anonymous": false,
      "inputs": [
        {
          "indexed": false,
          "internalType": "address",
          "name": "donor",
          "type": "address"
        },
        {
          "indexed": false,
          "internalType": "uint256",
          "name": "amount",
          "type": "uint256"
        },
        {
          "indexed": false,
          "internalType": "uint256",
          "name": "totalDonations",
          "type": "uint256"
        }
      ],
      "name": "Withdrawal",
      "type": "event"
    },
    {
      "inputs": [],
      "name": "creator",
      "outputs": [
        {
          "internalType": "address",
          "name": "",
          "type": "address"
        }
      ],
      "stateMutability": "view",
      "type": "function"
    },
    {
      "inputs": [],
      "name": "creatorWithdraw",
      "outputs": [],
      "stateMutability": "nonpayable",
      "type": "function"
    },
    {
      "inputs": [
        {
          "internalType": "uint256",
          "name": "amount",
          "type": "uint256"
        }
      ],
      "name": "donate",
      "outputs": [],
      "stateMutability": "nonpayable",
      "type": "function"
    },
    {
      "inputs": [
        {
          "internalType": "address",
          "name": "",
          "type": "address"
        }
      ],
      "name": "donors",
      "outputs": [
        {
          "internalType": "uint256",
          "name": "",
          "type": "uint256"
        }
      ],
      "stateMutability": "view",
      "type": "function"
    },
    {
      "inputs": [],
      "name": "endTime",
      "outputs": [
        {
          "internalType": "uint256",
          "name": "",
          "type": "uint256"
        }
      ],
      "stateMutability": "view",
      "type": "function"
    },
    {
      "inputs": [],
      "name": "moneyGoal",
      "outputs": [
        {
          "internalType": "uint256",
          "name": "",
          "type": "uint256"
        }
      ],
      "stateMutability": "view",
      "type": "function"
    },
    {
      "inputs": [],
      "name": "moneyRaised",
      "outputs": [
        {
          "internalType": "uint256",
          "name": "",
          "type": "uint256"
        }
      ],
      "stateMutability": "view",
      "type": "function"
    },
    {
      "inputs": [],
      "name": "startTime",
      "outputs": [
        {
          "internalType": "uint256",
          "name": "",
          "type": "uint256"
        }
      ],
      "stateMutability": "view",
      "type": "function"
    },
    {
      "inputs": [],
      "name": "tokenAddress",
      "outputs": [
        {
          "internalType": "address",
          "name": "",
          "type": "address"
        }
      ],
      "stateMutability": "view",
      "type": "function"
    },
    {
      "inputs": [],
      "name": "withdrawFunds",
      "outputs": [],
      "stateMutability": "nonpayable",
      "type": "function"
    }
  ],
  "transactionHash": "0xabc828b15d86c517f5d4bbc617cac204a3f3480b80eeb05309d18e5e5bf28cb2",
  "args": [
    "0xfAd3792af909D54927832116101fA909059C680b",
    1748457700,
    1751136100,
    100000000,
    "0x1c7D4B196Cb0C7B01d743Fbc6116a902379C7238"
  ],
  "numDeployments": 1,
  "solcInputHash": "ae6280a1309eeee6d3bac32c52b52c7a",
  "bytecode": "0x608060405234801561001057600080fd5b50604051610ac3380380610ac383398101604081905261002f91610258565b6001600160a01b0385166100955760405162461bcd60e51b815260206004820152602260248201527f43726561746f722063616e6e6f7420626520746865207a65726f206164647265604482015261737360f01b60648201526084015b60405180910390fd5b4284116100e45760405162461bcd60e51b815260206004820181905260248201527f53746172742074696d65206d75737420626520696e2074686520667574757265604482015260640161008c565b83831161013d5760405162461bcd60e51b815260206004820152602160248201527f456e642074696d65206d7573742062652061667465722073746172742074696d6044820152606560f81b606482015260840161008c565b600082116101975760405162461bcd60e51b815260206004820152602160248201527f4d6f6e657920676f616c206d7573742062652067726561746572207468616e206044820152600360fc1b606482015260840161008c565b6001600160a01b0381166101fe5760405162461bcd60e51b815260206004820152602860248201527f546f6b656e20616464726573732063616e6e6f7420626520746865207a65726f604482015267206164647265737360c01b606482015260840161008c565b600480546001600160a01b039687166001600160a01b03199182161790915560058054929096169116179093556000919091556001556003556102a8565b80516001600160a01b038116811461025357600080fd5b919050565b600080600080600060a0868803121561027057600080fd5b6102798661023c565b945060208601519350604086015192506060860151915061029c6080870161023c565b90509295509295909350565b61080c806102b76000396000f3fe608060405234801561001057600080fd5b506004361061009e5760003560e01c806364ec8bdb1161006657806364ec8bdb1461010657806378e979251461010e5780639d76ea5814610117578063ca0cdea81461012a578063f14faf6f1461014a57600080fd5b806302d05d3f146100a357806324600fc3146100d35780632aa908ec146100dd5780633197cbb6146100f45780634b0b945e146100fd575b600080fd5b6004546100b6906001600160a01b031681565b6040516001600160a01b0390911681526020015b60405180910390f35b6100db61015d565b005b6100e660035481565b6040519081526020016100ca565b6100e660015481565b6100e660025481565b6100db61030c565b6100e660005481565b6005546100b6906001600160a01b031681565b6100e6610138366004610700565b60066020526000908152604090205481565b6100db610158366004610730565b6104ac565b60015442106101a45760405162461bcd60e51b815260206004820152600e60248201526d10d85b5c185a59db88195b99195960921b60448201526064015b60405180910390fd5b336000908152600660205260409020546101f75760405162461bcd60e51b81526020600482015260146024820152734e6f2066756e647320746f20776974686472617760601b604482015260640161019b565b33600090815260066020526040812054600280549192839261021a90849061075f565b90915550503360008181526006602052604080822091909155600554905163a9059cbb60e01b81526004810192909252602482018390526001600160a01b03169063a9059cbb906044016020604051808303816000875af1158015610283573d6000803e3d6000fd5b505050506040513d601f19601f820116820180604052508101906102a79190610778565b6102c35760405162461bcd60e51b815260040161019b9061079a565b6002546040805133815260208101849052908101919091527fdf273cb619d95419a9cd0ec88123a0538c85064229baa6363788f743fff90deb906060015b60405180910390a150565b6004546001600160a01b031633146103665760405162461bcd60e51b815260206004820152601960248201527f4f6e6c792063726561746f722063616e20776974686472617700000000000000604482015260640161019b565b6001544210158061037a5750600354600254145b6103d55760405162461bcd60e51b815260206004820152602660248201527f43616d706169676e206e6f7420656e646564206f7220676f616c206e6f742072604482015265195858da195960d21b606482015260840161019b565b6005546004805460025460405163a9059cbb60e01b81526001600160a01b039283169381019390935260248301529091169063a9059cbb906044016020604051808303816000875af115801561042f573d6000803e3d6000fd5b505050506040513d601f19601f820116820180604052508101906104539190610778565b61046f5760405162461bcd60e51b815260040161019b9061079a565b7f4bc5d1019ebfeef89a9521dfa3efea48ef6d58f3b82ef81917ab77e67096feed6002546040516104a291815260200190565b60405180910390a1565b6104b633826105ca565b80600260008282546104c891906107c3565b909155505033600090815260066020526040812080548392906104ec9084906107c3565b90915550506005546040516323b872dd60e01b8152336004820152306024820152604481018390526001600160a01b03909116906323b872dd906064016020604051808303816000875af1158015610548573d6000803e3d6000fd5b505050506040513d601f19601f8201168201806040525081019061056c9190610778565b6105885760405162461bcd60e51b815260040161019b9061079a565b6002546040805133815260208101849052908101919091527f0d968ed0843603b466b27a4b0092affa11344caafe6d80e695c16ef623fd42bd90606001610301565b6000544210156106135760405162461bcd60e51b815260206004820152601460248201527310d85b5c185a59db881b9bdd081cdd185c9d195960621b604482015260640161019b565b60015442106106555760405162461bcd60e51b815260206004820152600e60248201526d10d85b5c185a59db88195b99195960921b604482015260640161019b565b600081116106a55760405162461bcd60e51b815260206004820152601d60248201527f416d6f756e74206d7573742062652067726561746572207468616e2030000000604482015260640161019b565b600354816002546106b691906107c3565b11156106fc5760405162461bcd60e51b815260206004820152601560248201527410d85b5c185a59db8819dbd85b081c995858da1959605a1b604482015260640161019b565b5050565b60006020828403121561071257600080fd5b81356001600160a01b038116811461072957600080fd5b9392505050565b60006020828403121561074257600080fd5b5035919050565b634e487b7160e01b600052601160045260246000fd5b8181038181111561077257610772610749565b92915050565b60006020828403121561078a57600080fd5b8151801515811461072957600080fd5b6020808252600f908201526e151c985b9cd9995c8819985a5b1959608a1b604082015260600190565b808201808211156107725761077261074956fea26469706673582212205378e2066d73f36c8db9555755a5b2ccca9342eda1dcddac2e9101a3c8fb5aec64736f6c63430008140033",
  "devdoc": {
    "kind": "dev",
    "methods": {},
    "version": 1
  },
  "userdoc": {
    "kind": "user",
    "methods": {},
    "version": 1
  },
  "storageLayout": {
    "storage": [
      {
        "astId": 102,
        "contract": "contracts/YourContract.sol:UrbeCampusExample",
        "label": "startTime",
        "offset": 0,
        "slot": "0",
        "type": "t_uint256"
      },
      {
        "astId": 104,
        "contract": "contracts/YourContract.sol:UrbeCampusExample",
        "label": "endTime",
        "offset": 0,
        "slot": "1",
        "type": "t_uint256"
      },
      {
        "astId": 106,
        "contract": "contracts/YourContract.sol:UrbeCampusExample",
        "label": "moneyRaised",
        "offset": 0,
        "slot": "2",
        "type": "t_uint256"
      },
      {
        "astId": 108,
        "contract": "contracts/YourContract.sol:UrbeCampusExample",
        "label": "moneyGoal",
        "offset": 0,
        "slot": "3",
        "type": "t_uint256"
      },
      {
        "astId": 110,
        "contract": "contracts/YourContract.sol:UrbeCampusExample",
        "label": "creator",
        "offset": 0,
        "slot": "4",
        "type": "t_address"
      },
      {
        "astId": 112,
        "contract": "contracts/YourContract.sol:UrbeCampusExample",
        "label": "tokenAddress",
        "offset": 0,
        "slot": "5",
        "type": "t_address"
      },
      {
        "astId": 116,
        "contract": "contracts/YourContract.sol:UrbeCampusExample",
        "label": "donors",
        "offset": 0,
        "slot": "6",
        "type": "t_mapping(t_address,t_uint256)"
      }
    ],
    "types": {
      "t_address": {
        "encoding": "inplace",
        "label": "address",
        "numberOfBytes": "20"
      },
      "t_mapping(t_address,t_uint256)": {
        "encoding": "mapping",
        "key": "t_address",
        "label": "mapping(address => uint256)",
        "numberOfBytes": "32",
        "value": "t_uint256"
      },
      "t_uint256": {
        "encoding": "inplace",
        "label": "uint256",
        "numberOfBytes": "32"
      }
    }
  }
}